{
  "_format": "hh-sol-artifact-1",
  "contractName": "AIModelMarketplace",
  "sourceName": "contracts/AIModelMarketplace.sol",
  "abi": [
    {
      "inputs": [
        {
          "internalType": "address",
          "name": "_tokenAddress",
          "type": "address"
        }
      ],
      "stateMutability": "nonpayable",
      "type": "constructor"
    },
    {
      "anonymous": false,
      "inputs": [
        {
          "indexed": true,
          "internalType": "uint256",
          "name": "id",
          "type": "uint256"
        },
        {
          "indexed": false,
          "internalType": "string",
          "name": "modelName",
          "type": "string"
        },
        {
          "indexed": false,
          "internalType": "uint256",
          "name": "price",
          "type": "uint256"
        },
        {
          "indexed": true,
          "internalType": "address",
          "name": "seller",
          "type": "address"
        }
      ],
      "name": "ListingCreated",
      "type": "event"
    },
    {
      "anonymous": false,
      "inputs": [
        {
          "indexed": true,
          "internalType": "uint256",
          "name": "id",
          "type": "uint256"
        },
        {
          "indexed": true,
          "internalType": "address",
          "name": "buyer",
          "type": "address"
        }
      ],
      "name": "ModelPurchased",
      "type": "event"
    },
    {
      "inputs": [
        {
          "internalType": "string",
          "name": "modelName",
          "type": "string"
        },
        {
          "internalType": "string",
          "name": "description",
          "type": "string"
        },
        {
          "internalType": "string",
          "name": "modelLink",
          "type": "string"
        },
        {
          "internalType": "uint256",
          "name": "price",
          "type": "uint256"
        }
      ],
      "name": "createListing",
      "outputs": [],
      "stateMutability": "nonpayable",
      "type": "function"
    },
    {
      "inputs": [],
      "name": "getAllListings",
      "outputs": [
        {
          "components": [
            {
              "internalType": "uint256",
              "name": "id",
              "type": "uint256"
            },
            {
              "internalType": "string",
              "name": "modelName",
              "type": "string"
            },
            {
              "internalType": "string",
              "name": "description",
              "type": "string"
            },
            {
              "internalType": "string",
              "name": "modelLink",
              "type": "string"
            },
            {
              "internalType": "uint256",
              "name": "price",
              "type": "uint256"
            },
            {
              "internalType": "address",
              "name": "seller",
              "type": "address"
            },
            {
              "internalType": "bool",
              "name": "sold",
              "type": "bool"
            }
          ],
          "internalType": "struct AIModelMarketplace.Listing[]",
          "name": "",
          "type": "tuple[]"
        }
      ],
      "stateMutability": "view",
      "type": "function"
    },
    {
      "inputs": [
        {
          "internalType": "uint256",
          "name": "",
          "type": "uint256"
        }
      ],
      "name": "listings",
      "outputs": [
        {
          "internalType": "uint256",
          "name": "id",
          "type": "uint256"
        },
        {
          "internalType": "string",
          "name": "modelName",
          "type": "string"
        },
        {
          "internalType": "string",
          "name": "description",
          "type": "string"
        },
        {
          "internalType": "string",
          "name": "modelLink",
          "type": "string"
        },
        {
          "internalType": "uint256",
          "name": "price",
          "type": "uint256"
        },
        {
          "internalType": "address",
          "name": "seller",
          "type": "address"
        },
        {
          "internalType": "bool",
          "name": "sold",
          "type": "bool"
        }
      ],
      "stateMutability": "view",
      "type": "function"
    },
    {
      "inputs": [],
      "name": "nextId",
      "outputs": [
        {
          "internalType": "uint256",
          "name": "",
          "type": "uint256"
        }
      ],
      "stateMutability": "view",
      "type": "function"
    },
    {
      "inputs": [
        {
          "internalType": "uint256",
          "name": "listingId",
          "type": "uint256"
        }
      ],
      "name": "purchaseModel",
      "outputs": [],
      "stateMutability": "nonpayable",
      "type": "function"
    },
    {
      "inputs": [],
      "name": "tokenAddress",
      "outputs": [
        {
          "internalType": "address",
          "name": "",
          "type": "address"
        }
      ],
      "stateMutability": "view",
      "type": "function"
    }
  ],
  "bytecode": "0x608060405234801561001057600080fd5b506040516117a33803806117a3833981810160405281019061003291906100e3565b80600260006101000a81548173ffffffffffffffffffffffffffffffffffffffff021916908373ffffffffffffffffffffffffffffffffffffffff1602179055506001808190555050610110565b600080fd5b600073ffffffffffffffffffffffffffffffffffffffff82169050919050565b60006100b082610085565b9050919050565b6100c0816100a5565b81146100cb57600080fd5b50565b6000815190506100dd816100b7565b92915050565b6000602082840312156100f9576100f8610080565b5b6000610107848285016100ce565b91505092915050565b6116848061011f6000396000f3fe608060405234801561001057600080fd5b50600436106100625760003560e01c8063451d41071461006757806361b8ce8c146100835780639d76ea58146100a1578063ae73ccec146100bf578063dc746862146100dd578063de74e57b146100f9575b600080fd5b610081600480360381019061007c9190610b75565b61012f565b005b61008b6103a9565b6040516100989190610c4d565b60405180910390f35b6100a96103af565b6040516100b69190610ca9565b60405180910390f35b6100c76103d5565b6040516100d49190610ef9565b60405180910390f35b6100f760048036038101906100f29190610f1b565b61066f565b005b610113600480360381019061010e9190610f1b565b6108b9565b6040516101269796959493929190610fa1565b60405180910390f35b60006040518060e00160405280600154815260200189898080601f016020809104026020016040519081016040528093929190818152602001838380828437600081840152601f19601f82011690508083019250505050505050815260200187878080601f016020809104026020016040519081016040528093929190818152602001838380828437600081840152601f19601f82011690508083019250505050505050815260200185858080601f016020809104026020016040519081016040528093929190818152602001838380828437600081840152601f19601f8201169050808301925050505050505081526020018381526020013373ffffffffffffffffffffffffffffffffffffffff1681526020016000151581525090806001815401808255809150506001900390600052602060002090600602016000909190919091506000820151816000015560208201518160010190816102939190611260565b5060408201518160020190816102a99190611260565b5060608201518160030190816102bf9190611260565b506080820151816004015560a08201518160050160006101000a81548173ffffffffffffffffffffffffffffffffffffffff021916908373ffffffffffffffffffffffffffffffffffffffff16021790555060c08201518160050160146101000a81548160ff02191690831515021790555050503373ffffffffffffffffffffffffffffffffffffffff166001547f745b3dfe762065dfb3f74abe31fd4c30f096502cfe515d15da5ff3c9fd61d8a28989856040516103809392919061136e565b60405180910390a36001600081548092919061039b906113cf565b919050555050505050505050565b60015481565b600260009054906101000a900473ffffffffffffffffffffffffffffffffffffffff1681565b60606000805480602002602001604051908101604052809291908181526020016000905b8282101561066657838290600052602060002090600602016040518060e00160405290816000820154815260200160018201805461043690611083565b80601f016020809104026020016040519081016040528092919081815260200182805461046290611083565b80156104af5780601f10610484576101008083540402835291602001916104af565b820191906000526020600020905b81548152906001019060200180831161049257829003601f168201915b505050505081526020016002820180546104c890611083565b80601f01602080910402602001604051908101604052809291908181526020018280546104f490611083565b80156105415780601f1061051657610100808354040283529160200191610541565b820191906000526020600020905b81548152906001019060200180831161052457829003601f168201915b5050505050815260200160038201805461055a90611083565b80601f016020809104026020016040519081016040528092919081815260200182805461058690611083565b80156105d35780601f106105a8576101008083540402835291602001916105d3565b820191906000526020600020905b8154815290600101906020018083116105b657829003601f168201915b50505050508152602001600482015481526020016005820160009054906101000a900473ffffffffffffffffffffffffffffffffffffffff1673ffffffffffffffffffffffffffffffffffffffff1673ffffffffffffffffffffffffffffffffffffffff1681526020016005820160149054906101000a900460ff161515151581525050815260200190600101906103f9565b50505050905090565b600060018261067e9190611417565b905060008054905081106106c7576040517f08c379a00000000000000000000000000000000000000000000000000000000081526004016106be90611497565b60405180910390fd5b60008082815481106106dc576106db6114b7565b5b906000526020600020906006020190508060050160149054906101000a900460ff161561073e576040517f08c379a000000000000000000000000000000000000000000000000000000000815260040161073590611532565b60405180910390fd5b6000600260009054906101000a900473ffffffffffffffffffffffffffffffffffffffff16905060008173ffffffffffffffffffffffffffffffffffffffff166323b872dd338560050160009054906101000a900473ffffffffffffffffffffffffffffffffffffffff1686600401546040518463ffffffff1660e01b81526004016107cc93929190611552565b6020604051808303816000875af11580156107eb573d6000803e3d6000fd5b505050506040513d601f19601f8201168201806040525081019061080f91906115b5565b905080610851576040517f08c379a00000000000000000000000000000000000000000000000000000000081526004016108489061162e565b60405180910390fd5b60018360050160146101000a81548160ff0219169083151502179055503373ffffffffffffffffffffffffffffffffffffffff16857fc8581808129c51c0416692a5ea1b58e080ae8f21e384eefe2f2dc85d231d12ba60405160405180910390a35050505050565b600081815481106108c957600080fd5b90600052602060002090600602016000915090508060000154908060010180546108f290611083565b80601f016020809104026020016040519081016040528092919081815260200182805461091e90611083565b801561096b5780601f106109405761010080835404028352916020019161096b565b820191906000526020600020905b81548152906001019060200180831161094e57829003601f168201915b50505050509080600201805461098090611083565b80601f01602080910402602001604051908101604052809291908181526020018280546109ac90611083565b80156109f95780601f106109ce576101008083540402835291602001916109f9565b820191906000526020600020905b8154815290600101906020018083116109dc57829003601f168201915b505050505090806003018054610a0e90611083565b80601f0160208091040260200160405190810160405280929190818152602001828054610a3a90611083565b8015610a875780601f10610a5c57610100808354040283529160200191610a87565b820191906000526020600020905b815481529060010190602001808311610a6a57829003601f168201915b5050505050908060040154908060050160009054906101000a900473ffffffffffffffffffffffffffffffffffffffff16908060050160149054906101000a900460ff16905087565b600080fd5b600080fd5b600080fd5b600080fd5b600080fd5b60008083601f840112610aff57610afe610ada565b5b8235905067ffffffffffffffff811115610b1c57610b1b610adf565b5b602083019150836001820283011115610b3857610b37610ae4565b5b9250929050565b6000819050919050565b610b5281610b3f565b8114610b5d57600080fd5b50565b600081359050610b6f81610b49565b92915050565b60008060008060008060006080888a031215610b9457610b93610ad0565b5b600088013567ffffffffffffffff811115610bb257610bb1610ad5565b5b610bbe8a828b01610ae9565b9750975050602088013567ffffffffffffffff811115610be157610be0610ad5565b5b610bed8a828b01610ae9565b9550955050604088013567ffffffffffffffff811115610c1057610c0f610ad5565b5b610c1c8a828b01610ae9565b93509350506060610c2f8a828b01610b60565b91505092959891949750929550565b610c4781610b3f565b82525050565b6000602082019050610c626000830184610c3e565b92915050565b600073ffffffffffffffffffffffffffffffffffffffff82169050919050565b6000610c9382610c68565b9050919050565b610ca381610c88565b82525050565b6000602082019050610cbe6000830184610c9a565b92915050565b600081519050919050565b600082825260208201905092915050565b6000819050602082019050919050565b610cf981610b3f565b82525050565b600081519050919050565b600082825260208201905092915050565b60005b83811015610d39578082015181840152602081019050610d1e565b60008484015250505050565b6000601f19601f8301169050919050565b6000610d6182610cff565b610d6b8185610d0a565b9350610d7b818560208601610d1b565b610d8481610d45565b840191505092915050565b610d9881610c88565b82525050565b60008115159050919050565b610db381610d9e565b82525050565b600060e083016000830151610dd16000860182610cf0565b5060208301518482036020860152610de98282610d56565b91505060408301518482036040860152610e038282610d56565b91505060608301518482036060860152610e1d8282610d56565b9150506080830151610e326080860182610cf0565b5060a0830151610e4560a0860182610d8f565b5060c0830151610e5860c0860182610daa565b508091505092915050565b6000610e6f8383610db9565b905092915050565b6000602082019050919050565b6000610e8f82610cc4565b610e998185610ccf565b935083602082028501610eab85610ce0565b8060005b85811015610ee75784840389528151610ec88582610e63565b9450610ed383610e77565b925060208a01995050600181019050610eaf565b50829750879550505050505092915050565b60006020820190508181036000830152610f138184610e84565b905092915050565b600060208284031215610f3157610f30610ad0565b5b6000610f3f84828501610b60565b91505092915050565b600082825260208201905092915050565b6000610f6482610cff565b610f6e8185610f48565b9350610f7e818560208601610d1b565b610f8781610d45565b840191505092915050565b610f9b81610d9e565b82525050565b600060e082019050610fb6600083018a610c3e565b8181036020830152610fc88189610f59565b90508181036040830152610fdc8188610f59565b90508181036060830152610ff08187610f59565b9050610fff6080830186610c3e565b61100c60a0830185610c9a565b61101960c0830184610f92565b98975050505050505050565b7f4e487b7100000000000000000000000000000000000000000000000000000000600052604160045260246000fd5b7f4e487b7100000000000000000000000000000000000000000000000000000000600052602260045260246000fd5b6000600282049050600182168061109b57607f821691505b6020821081036110ae576110ad611054565b5b50919050565b60008190508160005260206000209050919050565b60006020601f8301049050919050565b600082821b905092915050565b6000600883026111167fffffffffffffffffffffffffffffffffffffffffffffffffffffffffffffffff826110d9565b61112086836110d9565b95508019841693508086168417925050509392505050565b6000819050919050565b600061115d61115861115384610b3f565b611138565b610b3f565b9050919050565b6000819050919050565b61117783611142565b61118b61118382611164565b8484546110e6565b825550505050565b600090565b6111a0611193565b6111ab81848461116e565b505050565b5b818110156111cf576111c4600082611198565b6001810190506111b1565b5050565b601f821115611214576111e5816110b4565b6111ee846110c9565b810160208510156111fd578190505b611211611209856110c9565b8301826111b0565b50505b505050565b600082821c905092915050565b600061123760001984600802611219565b1980831691505092915050565b60006112508383611226565b9150826002028217905092915050565b61126982610cff565b67ffffffffffffffff81111561128257611281611025565b5b61128c8254611083565b6112978282856111d3565b600060209050601f8311600181146112ca57600084156112b8578287015190505b6112c28582611244565b86555061132a565b601f1984166112d8866110b4565b60005b82811015611300578489015182556001820191506020850194506020810190506112db565b8683101561131d5784890151611319601f891682611226565b8355505b6001600288020188555050505b505050505050565b82818337600083830152505050565b600061134d8385610f48565b935061135a838584611332565b61136383610d45565b840190509392505050565b60006040820190508181036000830152611389818587611341565b90506113986020830184610c3e565b949350505050565b7f4e487b7100000000000000000000000000000000000000000000000000000000600052601160045260246000fd5b60006113da82610b3f565b91507fffffffffffffffffffffffffffffffffffffffffffffffffffffffffffffffff820361140c5761140b6113a0565b5b600182019050919050565b600061142282610b3f565b915061142d83610b3f565b9250828203905081811115611445576114446113a0565b5b92915050565b7f4c697374696e6720646f6573206e6f7420657869737400000000000000000000600082015250565b6000611481601683610f48565b915061148c8261144b565b602082019050919050565b600060208201905081810360008301526114b081611474565b9050919050565b7f4e487b7100000000000000000000000000000000000000000000000000000000600052603260045260246000fd5b7f4c697374696e6720616c726561647920736f6c64000000000000000000000000600082015250565b600061151c601483610f48565b9150611527826114e6565b602082019050919050565b6000602082019050818103600083015261154b8161150f565b9050919050565b60006060820190506115676000830186610c9a565b6115746020830185610c9a565b6115816040830184610c3e565b949350505050565b61159281610d9e565b811461159d57600080fd5b50565b6000815190506115af81611589565b92915050565b6000602082840312156115cb576115ca610ad0565b5b60006115d9848285016115a0565b91505092915050565b7f546f6b656e207472616e73666572206661696c65640000000000000000000000600082015250565b6000611618601583610f48565b9150611623826115e2565b602082019050919050565b600060208201905081810360008301526116478161160b565b905091905056fea2646970667358221220c44b9c13bd2becbc45fbdf85344bb7936c66998422160208f1cb73fde68d2c8864736f6c634300081c0033",
  "linkReferences": {},
  "deployedLinkReferences": {}
}